:020000040800F2
:1000000000200020A90200087F02000881020008E9
:1000100000000000000000000000000000000000E0
:100020000000000000000000000000008302000843
:1000300000000000000000008502000887020008A0
:10004000F9020008F9020008F9020008F9020008A4
:10005000F9020008F9020008F9020008F902000894
:10006000F9020008F9020008F9020008F902000884
:10007000F9020008F9020008F9020008F902000874
:10008000F9020008F902000800000000F902000867
:10009000F9020008F9020008F9020008F902000854
:1000A000F9020008F9020008F9020008F902000844
:1000B000F902000800000000F9020008000000003A
:1000C00010B5064C2378002B07D1054B002B02D02E
:1000D000044800E000BF0123237010BD040000208D
:1000E0000000000044030008044B10B5002B03D0AF
:1000F0000349044800E000BF10BDC04600000000F6
:10010000080000204403000800200020110100081E
:1001100051484169514A1143416151485521C160DB
:100120005049514A0A6000224E48FF2181624C48E2
:100130000169C90755D04A4801698907C90F06D026
:10014000474801694907C90F74D0484B00E0484B44
:100150004448012181611A4600F079F800F071F8F5
:100160004048032181611A4600F071F800F069F8F7
:100170003C48072181611A4600F069F800F061F8F7
:1001800038480F2181611A4600F061F800F059F8F3
:1001900034481F2181611A4600F059F800F051F8E7
:1001A00030483F2181611A4600F051F800F049F8CB
:1001B0002C487F2181611A4600F049F800F041F88F
:1001C0002848FF2181611A4600F041F800F039F813
:1001D0002448FF2181621A4600F039F800F031F816
:1001E000A2E72048032181611A4600F030F800F0B0
:1001F00028F81C480F2181611A4600F028F800F009
:1002000020F818483F2181611A4600F020F800F0DC
:1002100018F81448FF2181611A4600F018F800F020
:1002200010F81048FF2181621A4600F010F800F023
:1002300008F879E70B48AA2181611A4600F007F80F
:1002400072E7074801690907C90FFAD07047013AF8
:10025000FDD170474A6167E70010024000000600C8
:10026000000000480004004855550000C05C15001F
:10027000C027090010B5FFF74BFF002010BDFEE7B7
:10028000FEE77047704710B500F002F810BD7047E8
:10029000034A1168034B1B785B1813607047C04614
:1002A00020000020000000200D488546FFF7EFFFEA
:1002B0000C480D490D4A002302E0D458C4500433C1
:1002C000C4188C42F9D30A4A0A4C002301E0136097
:1002D0000432A242FBD300F011F8FFF7CBFFFEE798
:1002E000002000200000002004000020640300081B
:1002F0000400002024000020FEE7000070B5002666
:100300000C4C0D4D641BA410A64209D1002600F030
:1003100019F80A4C0A4D641BA410A64205D170BD01
:10032000B300EB5898470136EEE7B300EB58984717
:100330000136F2E75C0300085C0300086003000874
:100340005C030008F8B5C046F8BC08BC9E46704780
:0C035000F8B5C046F8BC08BC9E467047DB
:04035C00E9000008AC
:04036000C1000008D0
:040364000100000094
:04000005080002A944
:00000001FF
